{
  "contractName": "ServiceRouter",
  "abi": [
    {
      "inputs": [
        {
          "internalType": "string",
          "name": "_publisher",
          "type": "string"
        }
      ],
      "stateMutability": "nonpayable",
      "type": "constructor"
    },
    {
      "anonymous": false,
      "inputs": [
        {
          "indexed": true,
          "internalType": "string",
          "name": "_name",
          "type": "string"
        },
        {
          "indexed": true,
          "internalType": "address",
          "name": "_newAddress",
          "type": "address"
        }
      ],
      "name": "UpdateNotification",
      "type": "event"
    },
    {
      "inputs": [],
      "name": "publisher",
      "outputs": [
        {
          "internalType": "string",
          "name": "",
          "type": "string"
        }
      ],
      "stateMutability": "view",
      "type": "function"
    },
    {
      "inputs": [
        {
          "internalType": "address",
          "name": "_service",
          "type": "address"
        },
        {
          "internalType": "string",
          "name": "_name",
          "type": "string"
        }
      ],
      "name": "addService",
      "outputs": [
        {
          "internalType": "bool",
          "name": "",
          "type": "bool"
        }
      ],
      "stateMutability": "nonpayable",
      "type": "function"
    },
    {
      "inputs": [
        {
          "internalType": "string",
          "name": "_name",
          "type": "string"
        }
      ],
      "name": "getServiceAddress",
      "outputs": [
        {
          "internalType": "address",
          "name": "",
          "type": "address"
        }
      ],
      "stateMutability": "view",
      "type": "function"
    }
  ],
  "bytecode": "0x60806040523480156200001157600080fd5b5060405162000ab038038062000ab08339818101604052810190620000379190620001ba565b80600290805190602001906200004f92919062000098565b5033600160006101000a81548173ffffffffffffffffffffffffffffffffffffffff021916908373ffffffffffffffffffffffffffffffffffffffff1602179055505062000330565b828054620000a6906200029c565b90600052602060002090601f016020900481019282620000ca576000855562000116565b82601f10620000e557805160ff191683800117855562000116565b8280016001018555821562000116579182015b8281111562000115578251825591602001919060010190620000f8565b5b50905062000125919062000129565b5090565b5b80821115620001445760008160009055506001016200012a565b5090565b60006200015f620001598462000233565b620001ff565b9050828152602081018484840111156200017857600080fd5b6200018584828562000266565b509392505050565b600082601f8301126200019f57600080fd5b8151620001b184826020860162000148565b91505092915050565b600060208284031215620001cd57600080fd5b600082015167ffffffffffffffff811115620001e857600080fd5b620001f6848285016200018d565b91505092915050565b6000604051905081810181811067ffffffffffffffff8211171562000229576200022862000301565b5b8060405250919050565b600067ffffffffffffffff82111562000251576200025062000301565b5b601f19601f8301169050602081019050919050565b60005b838110156200028657808201518184015260208101905062000269565b8381111562000296576000848401525b50505050565b60006002820490506001821680620002b557607f821691505b60208210811415620002cc57620002cb620002d2565b5b50919050565b7f4e487b7100000000000000000000000000000000000000000000000000000000600052602260045260246000fd5b7f4e487b7100000000000000000000000000000000000000000000000000000000600052604160045260246000fd5b61077080620003406000396000f3fe608060405234801561001057600080fd5b50600436106100415760003560e01c806376a8f664146100465780638c72c54e14610076578063fe48965214610094575b600080fd5b610060600480360381019061005b9190610368565b6100c4565b60405161006d919061051d565b60405180910390f35b61007e610216565b60405161008b9190610538565b60405180910390f35b6100ae60048036038101906100a991906103bc565b6102a4565b6040516100bb9190610502565b60405180910390f35b6000600160009054906101000a900473ffffffffffffffffffffffffffffffffffffffff1673ffffffffffffffffffffffffffffffffffffffff163373ffffffffffffffffffffffffffffffffffffffff1614610156576040517f08c379a000000000000000000000000000000000000000000000000000000000815260040161014d9061055a565b60405180910390fd5b8260008360405161016791906104eb565b908152602001604051809103902060006101000a81548173ffffffffffffffffffffffffffffffffffffffff021916908373ffffffffffffffffffffffffffffffffffffffff1602179055508273ffffffffffffffffffffffffffffffffffffffff16826040516101d891906104eb565b60405180910390207fe4418fc7735a7bc430a97eb09de2ebf21ac2a7f82e649851346ae860be3ca55a60405160405180910390a36001905092915050565b6002805461022390610682565b80601f016020809104026020016040519081016040528092919081815260200182805461024f90610682565b801561029c5780601f106102715761010080835404028352916020019161029c565b820191906000526020600020905b81548152906001019060200180831161027f57829003601f168201915b505050505081565b600080826040516102b591906104eb565b908152602001604051809103902060009054906101000a900473ffffffffffffffffffffffffffffffffffffffff169050919050565b60006102fe6102f9846105ab565b61057a565b90508281526020810184848401111561031657600080fd5b610321848285610640565b509392505050565b60008135905061033881610723565b92915050565b600082601f83011261034f57600080fd5b813561035f8482602086016102eb565b91505092915050565b6000806040838503121561037b57600080fd5b600061038985828601610329565b925050602083013567ffffffffffffffff8111156103a657600080fd5b6103b28582860161033e565b9150509250929050565b6000602082840312156103ce57600080fd5b600082013567ffffffffffffffff8111156103e857600080fd5b6103f48482850161033e565b91505092915050565b61040681610602565b82525050565b61041581610614565b82525050565b6000610426826105db565b61043081856105e6565b935061044081856020860161064f565b61044981610712565b840191505092915050565b600061045f826105db565b61046981856105f7565b935061047981856020860161064f565b80840191505092915050565b60006104926031836105e6565b91507f6f6e6c7920636f6e7472616374206f776e65722063616e206164642061206e6560008301527f77207365727669636520616464726573730000000000000000000000000000006020830152604082019050919050565b60006104f78284610454565b915081905092915050565b600060208201905061051760008301846103fd565b92915050565b6000602082019050610532600083018461040c565b92915050565b60006020820190508181036000830152610552818461041b565b905092915050565b6000602082019050818103600083015261057381610485565b9050919050565b6000604051905081810181811067ffffffffffffffff821117156105a1576105a06106e3565b5b8060405250919050565b600067ffffffffffffffff8211156105c6576105c56106e3565b5b601f19601f8301169050602081019050919050565b600081519050919050565b600082825260208201905092915050565b600081905092915050565b600061060d82610620565b9050919050565b60008115159050919050565b600073ffffffffffffffffffffffffffffffffffffffff82169050919050565b82818337600083830152505050565b60005b8381101561066d578082015181840152602081019050610652565b8381111561067c576000848401525b50505050565b6000600282049050600182168061069a57607f821691505b602082108114156106ae576106ad6106b4565b5b50919050565b7f4e487b7100000000000000000000000000000000000000000000000000000000600052602260045260246000fd5b7f4e487b7100000000000000000000000000000000000000000000000000000000600052604160045260246000fd5b6000601f19601f8301169050919050565b61072c81610602565b811461073757600080fd5b5056fea2646970667358221220833627171a06104adf48f1a4db816bba1d07b0c5d630ae3ec117daf5f471693a64736f6c63430008000033",
  "immutableReferences": {},
  "source": "// SPDX-License-Identifier: MIT\npragma solidity ^0.8.0;\n\n// This is just a simple example of a coin-like contract.\n// It is not standards compatible and cannot be expected to talk to other\n// coin/token contracts. If you want to create a standards-compliant\n// token, see: https://github.com/ConsenSys/Tokens. Cheers!\n\ncontract ServiceRouter {\n\tmapping (string => address) services;\n\taddress owner;\n\tstring public publisher;\n\n\tevent UpdateNotification(\n\t\tstring indexed _name, \n\t\taddress indexed _newAddress\n\t);\n\n\tconstructor(string memory _publisher) {\n\t\tpublisher = _publisher;\n\t\towner = msg.sender;\n\t}\n\n\tmodifier isOwner () {\n\t\trequire(msg.sender == owner, 'only contract owner can add a new service address');\n\t\t_;\n\t}\n\n\tfunction addService(address _service, string memory _name) public isOwner returns(bool) {\n\t\tservices[_name] = _service;\n\t\temit UpdateNotification(_name, _service);\n\t\treturn true;\n\t}\n\n\tfunction getServiceAddress(string memory _name) public view returns(address){\n\t\treturn services[_name];\n\t}\n\n}\n",
  "sourcePath": "/home/brucer/repos/gasseous/contracts/ServiceRouter.sol",
  "compiler": {
    "name": "solc",
    "version": "0.8.0+commit.c7dfd78e.Emscripten.clang"
  },
  "schemaVersion": "3.3.3",
  "updatedAt": "2020-12-28T21:00:44.739Z",
  "devdoc": {
    "kind": "dev",
    "methods": {},
    "version": 1
  },
  "userdoc": {
    "kind": "user",
    "methods": {},
    "version": 1
  }
}